{
  "contractName": "CivFactory",
  "abi": [
    {
      "inputs": [
        {
          "internalType": "string",
          "name": "_name",
          "type": "string"
        },
        {
          "internalType": "uint8",
          "name": "_mapSize",
          "type": "uint8"
        },
        {
          "internalType": "uint8",
          "name": "_maxPlayers",
          "type": "uint8"
        }
      ],
      "stateMutability": "nonpayable",
      "type": "constructor"
    },
    {
      "anonymous": false,
      "inputs": [
        {
          "indexed": true,
          "internalType": "address",
          "name": "previousOwner",
          "type": "address"
        },
        {
          "indexed": true,
          "internalType": "address",
          "name": "newOwner",
          "type": "address"
        }
      ],
      "name": "OwnershipTransferred",
      "type": "event"
    },
    {
      "inputs": [
        {
          "internalType": "uint256",
          "name": "",
          "type": "uint256"
        }
      ],
      "name": "cities",
      "outputs": [
        {
          "internalType": "string",
          "name": "name",
          "type": "string"
        },
        {
          "internalType": "uint256",
          "name": "level",
          "type": "uint256"
        }
      ],
      "stateMutability": "view",
      "type": "function",
      "constant": true
    },
    {
      "inputs": [
        {
          "internalType": "uint256",
          "name": "",
          "type": "uint256"
        }
      ],
      "name": "cityToCiv",
      "outputs": [
        {
          "internalType": "uint256",
          "name": "",
          "type": "uint256"
        }
      ],
      "stateMutability": "view",
      "type": "function",
      "constant": true
    },
    {
      "inputs": [
        {
          "internalType": "uint256",
          "name": "",
          "type": "uint256"
        }
      ],
      "name": "cityToPlayer",
      "outputs": [
        {
          "internalType": "address",
          "name": "",
          "type": "address"
        }
      ],
      "stateMutability": "view",
      "type": "function",
      "constant": true
    },
    {
      "inputs": [
        {
          "internalType": "uint256",
          "name": "",
          "type": "uint256"
        }
      ],
      "name": "civCityCount",
      "outputs": [
        {
          "internalType": "uint256",
          "name": "",
          "type": "uint256"
        }
      ],
      "stateMutability": "view",
      "type": "function",
      "constant": true
    },
    {
      "inputs": [
        {
          "internalType": "uint256",
          "name": "",
          "type": "uint256"
        }
      ],
      "name": "civs",
      "outputs": [
        {
          "internalType": "address",
          "name": "owner",
          "type": "address"
        },
        {
          "internalType": "string",
          "name": "name",
          "type": "string"
        },
        {
          "internalType": "uint16",
          "name": "age",
          "type": "uint16"
        },
        {
          "internalType": "string",
          "name": "leader",
          "type": "string"
        }
      ],
      "stateMutability": "view",
      "type": "function",
      "constant": true
    },
    {
      "inputs": [
        {
          "internalType": "uint8",
          "name": "",
          "type": "uint8"
        },
        {
          "internalType": "uint8",
          "name": "",
          "type": "uint8"
        }
      ],
      "name": "coordToTile",
      "outputs": [
        {
          "internalType": "uint256",
          "name": "",
          "type": "uint256"
        }
      ],
      "stateMutability": "view",
      "type": "function",
      "constant": true
    },
    {
      "inputs": [],
      "name": "game",
      "outputs": [
        {
          "internalType": "string",
          "name": "name",
          "type": "string"
        },
        {
          "internalType": "uint8",
          "name": "mapSize",
          "type": "uint8"
        },
        {
          "internalType": "uint8",
          "name": "maxPlayers",
          "type": "uint8"
        },
        {
          "internalType": "uint8",
          "name": "playerCount",
          "type": "uint8"
        }
      ],
      "stateMutability": "view",
      "type": "function",
      "constant": true
    },
    {
      "inputs": [
        {
          "internalType": "uint256",
          "name": "",
          "type": "uint256"
        }
      ],
      "name": "mapTiles",
      "outputs": [
        {
          "internalType": "enum CivFactory.TileType",
          "name": "tileType",
          "type": "uint8"
        },
        {
          "internalType": "enum CivFactory.TileResource",
          "name": "tileResource",
          "type": "uint8"
        },
        {
          "internalType": "enum CivFactory.TileImprovement",
          "name": "TileImprovement",
          "type": "uint8"
        }
      ],
      "stateMutability": "view",
      "type": "function",
      "constant": true
    },
    {
      "inputs": [],
      "name": "owner",
      "outputs": [
        {
          "internalType": "address",
          "name": "",
          "type": "address"
        }
      ],
      "stateMutability": "view",
      "type": "function",
      "constant": true
    },
    {
      "inputs": [],
      "name": "renounceOwnership",
      "outputs": [],
      "stateMutability": "nonpayable",
      "type": "function"
    },
    {
      "inputs": [
        {
          "internalType": "uint256",
          "name": "",
          "type": "uint256"
        }
      ],
      "name": "tileToCity",
      "outputs": [
        {
          "internalType": "uint256",
          "name": "",
          "type": "uint256"
        }
      ],
      "stateMutability": "view",
      "type": "function",
      "constant": true
    },
    {
      "inputs": [
        {
          "internalType": "address",
          "name": "newOwner",
          "type": "address"
        }
      ],
      "name": "transferOwnership",
      "outputs": [],
      "stateMutability": "nonpayable",
      "type": "function"
    }
  ],
  "bytecode": "0x60806040523480156200001157600080fd5b506040516200163538038062001635833981810160405281019062000037919062000581565b620000576200004b620000bb60201b60201c565b620000c360201b60201c565b620000676200018760201b60201c565b73ffffffffffffffffffffffffffffffffffffffff163373ffffffffffffffffffffffffffffffffffffffff16146200009f57600080fd5b620000b2838383620001b060201b60201c565b505050620006e3565b600033905090565b60008060009054906101000a900473ffffffffffffffffffffffffffffffffffffffff169050816000806101000a81548173ffffffffffffffffffffffffffffffffffffffff021916908373ffffffffffffffffffffffffffffffffffffffff1602179055508173ffffffffffffffffffffffffffffffffffffffff168173ffffffffffffffffffffffffffffffffffffffff167f8be0079c531659141344cd1fd0a4f28419497f9722a3daafe3b4186f6b6457e060405160405180910390a35050565b60008060009054906101000a900473ffffffffffffffffffffffffffffffffffffffff16905090565b620001c0620000bb60201b60201c565b73ffffffffffffffffffffffffffffffffffffffff16620001e66200018760201b60201c565b73ffffffffffffffffffffffffffffffffffffffff16146200023f576040517f08c379a000000000000000000000000000000000000000000000000000000000815260040162000236906200065d565b60405180910390fd5b60405180608001604052808481526020018360ff1681526020018260ff168152602001600060ff16815250600260008201518160000190805190602001906200028a929190620002f6565b5060208201518160010160006101000a81548160ff021916908360ff16021790555060408201518160010160016101000a81548160ff021916908360ff16021790555060608201518160010160026101000a81548160ff021916908360ff160217905550905050505050565b8280546200030490620006ae565b90600052602060002090601f01602090048101928262000328576000855562000374565b82601f106200034357805160ff191683800117855562000374565b8280016001018555821562000374579182015b828111156200037357825182559160200191906001019062000356565b5b50905062000383919062000387565b5090565b5b80821115620003a257600081600090555060010162000388565b5090565b6000604051905090565b600080fd5b600080fd5b600080fd5b600080fd5b6000601f19601f8301169050919050565b7f4e487b7100000000000000000000000000000000000000000000000000000000600052604160045260246000fd5b6200040f82620003c4565b810181811067ffffffffffffffff82111715620004315762000430620003d5565b5b80604052505050565b600062000446620003a6565b905062000454828262000404565b919050565b600067ffffffffffffffff821115620004775762000476620003d5565b5b6200048282620003c4565b9050602081019050919050565b60005b83811015620004af57808201518184015260208101905062000492565b83811115620004bf576000848401525b50505050565b6000620004dc620004d68462000459565b6200043a565b905082815260208101848484011115620004fb57620004fa620003bf565b5b620005088482856200048f565b509392505050565b600082601f830112620005285762000527620003ba565b5b81516200053a848260208601620004c5565b91505092915050565b600060ff82169050919050565b6200055b8162000543565b81146200056757600080fd5b50565b6000815190506200057b8162000550565b92915050565b6000806000606084860312156200059d576200059c620003b0565b5b600084015167ffffffffffffffff811115620005be57620005bd620003b5565b5b620005cc8682870162000510565b9350506020620005df868287016200056a565b9250506040620005f2868287016200056a565b9150509250925092565b600082825260208201905092915050565b7f4f776e61626c653a2063616c6c6572206973206e6f7420746865206f776e6572600082015250565b600062000645602083620005fc565b915062000652826200060d565b602082019050919050565b60006020820190508181036000830152620006788162000636565b9050919050565b7f4e487b7100000000000000000000000000000000000000000000000000000000600052602260045260246000fd5b60006002820490506001821680620006c757607f821691505b602082108103620006dd57620006dc6200067f565b5b50919050565b610f4280620006f36000396000f3fe608060405234801561001057600080fd5b50600436106100b45760003560e01c80638da5cb5b116100715780638da5cb5b146101b757806397fd5940146101d5578063b479773214610205578063c3fe3e2814610237578063ee208b4514610258578063f2fde38b14610288576100b4565b806303ce619a146100b957806325e34829146100e957806331fc392a1461011957806348356c0f1461014c5780636a51b9181461017c578063715018a6146101ad575b600080fd5b6100d360048036038101906100ce919061095a565b6102a4565b6040516100e091906109b3565b60405180910390f35b61010360048036038101906100fe91906109fa565b6102c9565b60405161011091906109b3565b60405180910390f35b610133600480360381019061012e91906109fa565b6102e1565b6040516101439493929190610b1e565b60405180910390f35b610166600480360381019061016191906109fa565b61045f565b60405161017391906109b3565b60405180910390f35b610196600480360381019061019191906109fa565b610477565b6040516101a4929190610b71565b60405180910390f35b6101b5610533565b005b6101bf6105bb565b6040516101cc9190610ba1565b60405180910390f35b6101ef60048036038101906101ea91906109fa565b6105e4565b6040516101fc91906109b3565b60405180910390f35b61021f600480360381019061021a91906109fa565b6105fc565b60405161022e93929190610cc3565b60405180910390f35b61023f610659565b60405161024f9493929190610d09565b60405180910390f35b610272600480360381019061026d91906109fa565b610726565b60405161027f9190610ba1565b60405180910390f35b6102a2600480360381019061029d9190610d81565b610759565b005b6008602052816000526040600020602052806000526040600020600091509150505481565b60056020528060005260406000206000915090505481565b600481815481106102f157600080fd5b90600052602060002090600402016000915090508060000160009054906101000a900473ffffffffffffffffffffffffffffffffffffffff169080600101805461033a90610ddd565b80601f016020809104026020016040519081016040528092919081815260200182805461036690610ddd565b80156103b35780601f10610388576101008083540402835291602001916103b3565b820191906000526020600020905b81548152906001019060200180831161039657829003601f168201915b5050505050908060020160009054906101000a900461ffff16908060030180546103dc90610ddd565b80601f016020809104026020016040519081016040528092919081815260200182805461040890610ddd565b80156104555780601f1061042a57610100808354040283529160200191610455565b820191906000526020600020905b81548152906001019060200180831161043857829003601f168201915b5050505050905084565b60066020528060005260406000206000915090505481565b600b818154811061048757600080fd5b90600052602060002090600202016000915090508060000180546104aa90610ddd565b80601f01602080910402602001604051908101604052809291908181526020018280546104d690610ddd565b80156105235780601f106104f857610100808354040283529160200191610523565b820191906000526020600020905b81548152906001019060200180831161050657829003601f168201915b5050505050908060010154905082565b61053b610850565b73ffffffffffffffffffffffffffffffffffffffff166105596105bb565b73ffffffffffffffffffffffffffffffffffffffff16146105af576040517f08c379a00000000000000000000000000000000000000000000000000000000081526004016105a690610e5a565b60405180910390fd5b6105b96000610858565b565b60008060009054906101000a900473ffffffffffffffffffffffffffffffffffffffff16905090565b60096020528060005260406000206000915090505481565b6007818154811061060c57600080fd5b906000526020600020016000915090508060000160009054906101000a900460ff16908060000160019054906101000a900460ff16908060000160029054906101000a900460ff16905083565b600280600001805461066a90610ddd565b80601f016020809104026020016040519081016040528092919081815260200182805461069690610ddd565b80156106e35780601f106106b8576101008083540402835291602001916106e3565b820191906000526020600020905b8154815290600101906020018083116106c657829003601f168201915b5050505050908060010160009054906101000a900460ff16908060010160019054906101000a900460ff16908060010160029054906101000a900460ff16905084565b600c6020528060005260406000206000915054906101000a900473ffffffffffffffffffffffffffffffffffffffff1681565b610761610850565b73ffffffffffffffffffffffffffffffffffffffff1661077f6105bb565b73ffffffffffffffffffffffffffffffffffffffff16146107d5576040517f08c379a00000000000000000000000000000000000000000000000000000000081526004016107cc90610e5a565b60405180910390fd5b600073ffffffffffffffffffffffffffffffffffffffff168173ffffffffffffffffffffffffffffffffffffffff1603610844576040517f08c379a000000000000000000000000000000000000000000000000000000000815260040161083b90610eec565b60405180910390fd5b61084d81610858565b50565b600033905090565b60008060009054906101000a900473ffffffffffffffffffffffffffffffffffffffff169050816000806101000a81548173ffffffffffffffffffffffffffffffffffffffff021916908373ffffffffffffffffffffffffffffffffffffffff1602179055508173ffffffffffffffffffffffffffffffffffffffff168173ffffffffffffffffffffffffffffffffffffffff167f8be0079c531659141344cd1fd0a4f28419497f9722a3daafe3b4186f6b6457e060405160405180910390a35050565b600080fd5b600060ff82169050919050565b61093781610921565b811461094257600080fd5b50565b6000813590506109548161092e565b92915050565b600080604083850312156109715761097061091c565b5b600061097f85828601610945565b925050602061099085828601610945565b9150509250929050565b6000819050919050565b6109ad8161099a565b82525050565b60006020820190506109c860008301846109a4565b92915050565b6109d78161099a565b81146109e257600080fd5b50565b6000813590506109f4816109ce565b92915050565b600060208284031215610a1057610a0f61091c565b5b6000610a1e848285016109e5565b91505092915050565b600073ffffffffffffffffffffffffffffffffffffffff82169050919050565b6000610a5282610a27565b9050919050565b610a6281610a47565b82525050565b600081519050919050565b600082825260208201905092915050565b60005b83811015610aa2578082015181840152602081019050610a87565b83811115610ab1576000848401525b50505050565b6000601f19601f8301169050919050565b6000610ad382610a68565b610add8185610a73565b9350610aed818560208601610a84565b610af681610ab7565b840191505092915050565b600061ffff82169050919050565b610b1881610b01565b82525050565b6000608082019050610b336000830187610a59565b8181036020830152610b458186610ac8565b9050610b546040830185610b0f565b8181036060830152610b668184610ac8565b905095945050505050565b60006040820190508181036000830152610b8b8185610ac8565b9050610b9a60208301846109a4565b9392505050565b6000602082019050610bb66000830184610a59565b92915050565b7f4e487b7100000000000000000000000000000000000000000000000000000000600052602160045260246000fd5b60118110610bfc57610bfb610bbc565b5b50565b6000819050610c0d82610beb565b919050565b6000610c1d82610bff565b9050919050565b610c2d81610c12565b82525050565b600d8110610c4457610c43610bbc565b5b50565b6000819050610c5582610c33565b919050565b6000610c6582610c47565b9050919050565b610c7581610c5a565b82525050565b600a8110610c8c57610c8b610bbc565b5b50565b6000819050610c9d82610c7b565b919050565b6000610cad82610c8f565b9050919050565b610cbd81610ca2565b82525050565b6000606082019050610cd86000830186610c24565b610ce56020830185610c6c565b610cf26040830184610cb4565b949350505050565b610d0381610921565b82525050565b60006080820190508181036000830152610d238187610ac8565b9050610d326020830186610cfa565b610d3f6040830185610cfa565b610d4c6060830184610cfa565b95945050505050565b610d5e81610a47565b8114610d6957600080fd5b50565b600081359050610d7b81610d55565b92915050565b600060208284031215610d9757610d9661091c565b5b6000610da584828501610d6c565b91505092915050565b7f4e487b7100000000000000000000000000000000000000000000000000000000600052602260045260246000fd5b60006002820490506001821680610df557607f821691505b602082108103610e0857610e07610dae565b5b50919050565b7f4f776e61626c653a2063616c6c6572206973206e6f7420746865206f776e6572600082015250565b6000610e44602083610a73565b9150610e4f82610e0e565b602082019050919050565b60006020820190508181036000830152610e7381610e37565b9050919050565b7f4f776e61626c653a206e6577206f776e657220697320746865207a65726f206160008201527f6464726573730000000000000000000000000000000000000000000000000000602082015250565b6000610ed6602683610a73565b9150610ee182610e7a565b604082019050919050565b60006020820190508181036000830152610f0581610ec9565b905091905056fea2646970667358221220d2d4ea1de8478d8902091bf6acd3b01d676df8854778f90e0b040a8536b6ba5164736f6c634300080d0033",
  "immutableReferences": {},
  "source": "pragma solidity ^0.8.0;\r\n\r\nimport \"@openzeppelin/contracts/access/Ownable.sol\";\r\nimport \"@openzeppelin/contracts/utils/math/SafeMath.sol\";\r\n\r\n\r\ncontract CivFactory is Ownable {\r\n\r\n  using SafeMath for uint256;\r\n\r\n  struct GameSession {\r\n    string name;\r\n    uint8 mapSize;\r\n    uint8 maxPlayers;\r\n    uint8 playerCount;\r\n  }\r\n\r\n  mapping(address => uint) playerToCiv;\r\n\r\n  GameSession public game;\r\n\r\n  struct Civilization {\r\n    address owner;\r\n    string name;\r\n    uint16 age;\r\n    string leader;\r\n  }\r\n\r\n  Civilization[] public civs;\r\n\r\n  mapping (uint => uint) public cityToCiv;\r\n  mapping (uint => uint) public civCityCount;\r\n\r\n  enum TileType {\r\n    Plains,\r\n    Grassland,\r\n    Desert,\r\n    Tundra,\r\n    Snow,\r\n    PlainsHills,\r\n    GrasslandHills,\r\n    DesertHills,\r\n    TundraHills,\r\n    SnowHills,\r\n    PlainsMountains,\r\n    GrasslandMountains,\r\n    DesertMountains,\r\n    TundraMountains,\r\n    SnowMountains,\r\n    Coast,\r\n    Ocean\r\n  }\r\n\r\n  enum TileResource {\r\n    Wheat,\r\n    Rice,\r\n    Corn,\r\n    Cows,\r\n    Sheep,\r\n    Horses,\r\n    Stone,\r\n    Copper,\r\n    Iron,\r\n    Coal,\r\n    Niter,\r\n    Oil,\r\n    Uranium\r\n  }\r\n\r\n  enum TileImprovement {\r\n    Farm,\r\n    Pasture,\r\n    Camp,\r\n    Plantation,\r\n    Quarry,\r\n    Mine,\r\n    Outpost,\r\n    Village,\r\n    Wall,\r\n    Gate\r\n  }\r\n\r\n  struct Tile {\r\n    TileType tileType;\r\n    TileResource tileResource;\r\n    TileImprovement TileImprovement;\r\n  }\r\n\r\n  Tile[] public mapTiles;\r\n\r\n  mapping (uint8 => mapping ( uint8 => uint )) public coordToTile;\r\n  mapping (uint => uint) public tileToCity;\r\n  mapping (uint => uint) cityTileCount;\r\n\r\n\r\n  struct City {\r\n    string name;\r\n    uint level;\r\n  }\r\n\r\n  City[] public cities;\r\n\r\n  mapping (uint => address) public cityToPlayer;\r\n  mapping (address => uint) playerCityCount;\r\n  mapping (uint => uint) cityToTile;\r\n\r\n  function createNewGame (string memory _name, uint8 _mapSize, uint8 _maxPlayers) private onlyOwner {\r\n    game = GameSession(_name, _mapSize, _maxPlayers, 0);\r\n  }\r\n\r\n  constructor(string memory _name, uint8 _mapSize, uint8 _maxPlayers) {\r\n    require(msg.sender == owner());\r\n    createNewGame(_name, _mapSize, _maxPlayers);\r\n  }\r\n\r\n}\r\n",
  "sourcePath": "C:\\Users\\Flak\\Documents\\Dev\\eth-civ\\contracts\\CivFactory.sol",
  "compiler": {
    "name": "solc",
    "version": "0.8.13+commit.abaa5c0e.Emscripten.clang"
  },
  "schemaVersion": "3.4.5",
  "updatedAt": "2022-03-22T20:46:35.537Z",
  "networkType": "ethereum",
  "devdoc": {
    "kind": "dev",
    "methods": {
      "owner()": {
        "details": "Returns the address of the current owner."
      },
      "renounceOwnership()": {
        "details": "Leaves the contract without owner. It will not be possible to call `onlyOwner` functions anymore. Can only be called by the current owner. NOTE: Renouncing ownership will leave the contract without an owner, thereby removing any functionality that is only available to the owner."
      },
      "transferOwnership(address)": {
        "details": "Transfers ownership of the contract to a new account (`newOwner`). Can only be called by the current owner."
      }
    },
    "version": 1
  },
  "userdoc": {
    "kind": "user",
    "methods": {},
    "version": 1
  }
}