{
  "contractName": "CivFactory",
  "abi": [
    {
      "inputs": [],
      "payable": false,
      "stateMutability": "nonpayable",
      "type": "constructor"
    },
    {
      "constant": true,
      "inputs": [],
      "name": "balance",
      "outputs": [
        {
          "internalType": "uint256",
          "name": "",
          "type": "uint256"
        }
      ],
      "payable": false,
      "stateMutability": "view",
      "type": "function"
    },
    {
      "constant": false,
      "inputs": [
        {
          "internalType": "uint256",
          "name": "amount",
          "type": "uint256"
        }
      ],
      "name": "deposit",
      "outputs": [],
      "payable": false,
      "stateMutability": "nonpayable",
      "type": "function"
    },
    {
      "constant": false,
      "inputs": [
        {
          "internalType": "uint256",
          "name": "amount",
          "type": "uint256"
        }
      ],
      "name": "withdraw",
      "outputs": [],
      "payable": false,
      "stateMutability": "nonpayable",
      "type": "function"
    }
  ],
  "bytecode": "0x60806040526000805534801561001457600080fd5b50610197806100246000396000f3fe608060405234801561001057600080fd5b50600436106100415760003560e01c80632e1a7d4d14610046578063b69ef8a814610074578063b6b55f2514610092575b600080fd5b6100726004803603602081101561005c57600080fd5b81019080803590602001909291905050506100c0565b005b61007c61014a565b6040518082815260200191505060405180910390f35b6100be600480360360208110156100a857600080fd5b8101908080359060200190929190505050610150565b005b806000541015610138576040517f08c379a000000000000000000000000000000000000000000000000000000000815260040180806020018281038252601e8152602001807f4163636f756e742068617320696e73756666696369656e742066756e6473000081525060200191505060405180910390fd5b80600080828254039250508190555050565b60005481565b8060008082825401925050819055505056fea265627a7a72315820d61f9e38096f0ee0b7a575a93523c85d0a23135d8cc5860ade33e721827352f264736f6c63430005100032",
  "source": "pragma solidity ^0.5.0;\r\n\r\ncontract CivFactory {\r\n  uint256 public balance = 0;\r\n\r\n  constructor() public {\r\n  }\r\n\r\n  function deposit (uint amount) public {\r\n    balance += amount;\r\n  }\r\n\r\n  function withdraw (uint amount) public {\r\n    require(balance >= amount, \"Account has insufficient funds\");\r\n    balance -= amount;\r\n  }\r\n}\r\n",
  "sourcePath": "C:\\Users\\Flak\\Documents\\Dev\\eth-civ\\contracts\\CivFactory.sol",
  "compiler": {
    "name": "solc",
    "version": "0.5.16+commit.9c3226ce.Emscripten.clang"
  },
  "schemaVersion": "3.4.5",
  "updatedAt": "2022-03-22T18:32:55.812Z",
  "networkType": "ethereum",
  "devdoc": {
    "methods": {}
  },
  "userdoc": {
    "methods": {}
  }
}